:020000000A2ACA
:10000800FF00030E8301B0000A08B1008A017008DE
:10001800A4007108A3007208A2007308A1008B1C39
:100028001C280022E8210522E8210021FD308B054B
:100038000B1D3228F8308100AB0A0319AC0AAD0A4F
:100048000319AE0A2E08013A031D2C28F4302D0698
:10005800031D3028AD01AE01FB308B052408F000EC
:100068002308F1002208F2002108F30031088A0071
:0A007800300E8300FF0E7F0E09001A
:0E008200F201F101F001F801F3010030080075
:100090007B15FB1F52280130F300F201F101F00142
:0800A000FA0DF20CFF3008001C
:0800A800FA1FF21300300800FA
:1000B000FB14FB1F6228FF30F300F200F100F00098
:0800C000FA0DF20CFF300800FC
:1000C8007B14FB1F6F28F201FA1FFF30F200F100CA
:0A00D800F000FA0DF20CFF300800F2
:1000E200A0017208031D86287108F2007008F10051
:1000F200F001A0157208031D86287108F200F101B3
:10010200A01120167208031994282008F302031D77
:10011200031C98280310F21B9C28F00DF10DF20D20
:10012200F30B8C2898280130FC0041209F280230D4
:0E013200FC0048209F280430FC0054200800E8
:06014000FB15FF30080072
:1001460083120313FB0173080319E0287208FA00EF
:10015600F2178E30F302F31FE328F309F30A08308F
:100166007302031CC628F300F10D7208F100F201B8
:1001760008307302031CC628F300F10DF101730861
:10018600031D0310CE2873080319CE280310F20CA2
:10019600F10CF30BC9287B1B711CD828031CD8282B
:1001A600F10A0319F20AF21BEF28FA1FF228F209E4
:1001B600F109F10A0319F20AF228F201F101F22813
:1001C6007B14FB1FF528F201FA1FF528FF30F20019
:1001D600F100FA0DF20CF5280130FC00F72800308A
:1001E600FC00F728FF30FC00FC080319FB286420FC
:0A01F6007108F0007208F100080023
:0A0200006030831203138800080029
:10020A0083120313AB01AC0133082C02031D0F291F
:0C021A0032082B020318122909290800E1
:10022600831203137408003A031D2E297508003A39
:10023600031D2E297608003A031D2E297708003A59
:10024600031D2E29FF30F000FF30F1007F30F20051
:10025600FF30F300C9298312031377080319BD2958
:1002660073080319C029720876068039FA00F21756
:10027600F617A0017208F8007108FC007008FD006E
:100286007408FD027508031C750FFC027608031C32
:10029600760FF802F801FC01FD01031C5929031031
:1002A600F20CF10CF00CF80C0130A0007708F30208
:1002B600031C63297E302007F3070318C329682926
:1002C6007E302007F307031CC6291830FA07FD0DF8
:1002D600FC0DF80DF00DF10DF20DA00D7408F002F5
:1002E6007508031C750FF1027608031C760FF202DF
:1002F600760DA004201C81297D148C297408F00732
:1003060075080318750FF10776080318760AF207C1
:100316007D10FA031F307A05031D6A297B1B7D1C9D
:10032600B3290310F00DF10DF20DA00D7408F002C3
:100336007508031C750FF1027608031C760FF2028E
:10034600760D20040139FD070318FC0A0319F80A83
:10035600031DB329F80CFC0CFD0CF30A0319C32981
:10036600FA1FF8137808F2007C08F1007D08F00007
:100376000030C8290130A020C82902304120C829F0
:0E03860004305820C829083048200000080024
:10039400831203137008F8007108F000F101F201F0
:1003A400F301FB01FC019630F300FA01F01FE02990
:1003B400F809F009F80A0319F00AFA177008F100AD
:0C03C4007808F000F801F2017120080038
:1003D00083120313F1015A3071020318FF29F2014D
:1003E000F30107307302031DF729D030720203189E
:1003F000FD29F20A0319F30AF129F10AEB29080091
:0A04000090308312031388000800F7
:0A040A00203083120313880008005D
:100414000F308316031388000530860010308312D2
:100424009000B0308B008730831681008312AD01B9
:10043400AE01AF01AB01AC01F83081008830B200ED
:100444001330B30005218F018E0186140630FD00A0
:10045400FD0B2A2A0000FD30860504300605F10054
:100464007108003A031D372A2F2A10140430060598
:10047400F1007108013A031D402A382AFB30900527
:100484000F08F100F0010E08F0040030F1047008C8
:10049400A7007108A800CA21EC30F4005130F5001F
:1004A4006A30F6008430F7001321A3207008A900F5
:1004B4007108AA0080307106F20080307202031DB8
:1004C400652A963070020318682A0021252A692AB1
:02400E004A2F37
:00000001FF
